{
  "_format": "hh-sol-artifact-1",
  "contractName": "Upload",
  "sourceName": "contracts/Upload.sol",
  "abi": [
    {
      "anonymous": false,
      "inputs": [
        {
          "indexed": true,
          "internalType": "address",
          "name": "owner",
          "type": "address"
        },
        {
          "indexed": true,
          "internalType": "address",
          "name": "user",
          "type": "address"
        }
      ],
      "name": "AccessGranted",
      "type": "event"
    },
    {
      "anonymous": false,
      "inputs": [
        {
          "indexed": true,
          "internalType": "address",
          "name": "owner",
          "type": "address"
        },
        {
          "indexed": true,
          "internalType": "address",
          "name": "user",
          "type": "address"
        }
      ],
      "name": "AccessRevoked",
      "type": "event"
    },
    {
      "anonymous": false,
      "inputs": [
        {
          "indexed": true,
          "internalType": "address",
          "name": "user",
          "type": "address"
        },
        {
          "indexed": false,
          "internalType": "string",
          "name": "url",
          "type": "string"
        }
      ],
      "name": "ValueAdded",
      "type": "event"
    },
    {
      "inputs": [
        {
          "internalType": "address",
          "name": "_user",
          "type": "address"
        },
        {
          "internalType": "string",
          "name": "url",
          "type": "string"
        }
      ],
      "name": "add",
      "outputs": [],
      "stateMutability": "nonpayable",
      "type": "function"
    },
    {
      "inputs": [
        {
          "internalType": "address",
          "name": "user",
          "type": "address"
        }
      ],
      "name": "allow",
      "outputs": [],
      "stateMutability": "nonpayable",
      "type": "function"
    },
    {
      "inputs": [
        {
          "internalType": "address",
          "name": "user",
          "type": "address"
        }
      ],
      "name": "disallow",
      "outputs": [],
      "stateMutability": "nonpayable",
      "type": "function"
    },
    {
      "inputs": [
        {
          "internalType": "address",
          "name": "_user",
          "type": "address"
        }
      ],
      "name": "display",
      "outputs": [
        {
          "internalType": "string[]",
          "name": "",
          "type": "string[]"
        }
      ],
      "stateMutability": "view",
      "type": "function"
    },
    {
      "inputs": [],
      "name": "shareAccess",
      "outputs": [
        {
          "components": [
            {
              "internalType": "address",
              "name": "user",
              "type": "address"
            },
            {
              "internalType": "bool",
              "name": "access",
              "type": "bool"
            }
          ],
          "internalType": "struct Upload.Access[]",
          "name": "",
          "type": "tuple[]"
        }
      ],
      "stateMutability": "view",
      "type": "function"
    }
  ],
  "bytecode": "0x608060405234801561001057600080fd5b50611566806100206000396000f3fe608060405234801561001057600080fd5b50600436106100575760003560e01c806336d6da551461005c578063a9ed9cb814610078578063bc8bef8114610094578063eb39113f146100b2578063ff9913e8146100e2575b600080fd5b61007660048036038101906100719190610db4565b6100fe565b005b610092600480360381019061008d9190610e10565b6101c1565b005b61009c61043d565b6040516100a99190610f45565b60405180910390f35b6100cc60048036038101906100c79190610e10565b610546565b6040516100d991906110a8565b60405180910390f35b6100fc60048036038101906100f79190610e10565b61075c565b005b6000808373ffffffffffffffffffffffffffffffffffffffff1673ffffffffffffffffffffffffffffffffffffffff1681526020019081526020016000208190806001815401808255809150506001900390600052602060002001600090919091909150908161016e91906112e0565b508173ffffffffffffffffffffffffffffffffffffffff167fa0632f36fb58843205c8c416a42852053aebfb9a640141d96ef322f98d079ff1826040516101b591906113fc565b60405180910390a25050565b6000600160003373ffffffffffffffffffffffffffffffffffffffff1673ffffffffffffffffffffffffffffffffffffffff16815260200190815260200160002060008373ffffffffffffffffffffffffffffffffffffffff1673ffffffffffffffffffffffffffffffffffffffff16815260200190815260200160002060006101000a81548160ff02191690831515021790555060005b600260003373ffffffffffffffffffffffffffffffffffffffff1673ffffffffffffffffffffffffffffffffffffffff168152602001908152602001600020805490508110156103df578173ffffffffffffffffffffffffffffffffffffffff16600260003373ffffffffffffffffffffffffffffffffffffffff1673ffffffffffffffffffffffffffffffffffffffff168152602001908152602001600020828154811061030b5761030a61141e565b5b9060005260206000200160000160009054906101000a900473ffffffffffffffffffffffffffffffffffffffff1673ffffffffffffffffffffffffffffffffffffffff16036103cc576000600260003373ffffffffffffffffffffffffffffffffffffffff1673ffffffffffffffffffffffffffffffffffffffff16815260200190815260200160002082815481106103a7576103a661141e565b5b9060005260206000200160000160146101000a81548160ff0219169083151502179055505b80806103d79061147c565b915050610259565b508073ffffffffffffffffffffffffffffffffffffffff163373ffffffffffffffffffffffffffffffffffffffff167f825c8be24eb0df19500f63e86c29e7d0d951e73056b889b891d85e40938d9b6e60405160405180910390a350565b6060600260003373ffffffffffffffffffffffffffffffffffffffff1673ffffffffffffffffffffffffffffffffffffffff168152602001908152602001600020805480602002602001604051908101604052809291908181526020016000905b8282101561053d578382906000526020600020016040518060400160405290816000820160009054906101000a900473ffffffffffffffffffffffffffffffffffffffff1673ffffffffffffffffffffffffffffffffffffffff1673ffffffffffffffffffffffffffffffffffffffff1681526020016000820160149054906101000a900460ff1615151515815250508152602001906001019061049e565b50505050905090565b60603373ffffffffffffffffffffffffffffffffffffffff168273ffffffffffffffffffffffffffffffffffffffff1614806106085750600160008373ffffffffffffffffffffffffffffffffffffffff1673ffffffffffffffffffffffffffffffffffffffff16815260200190815260200160002060003373ffffffffffffffffffffffffffffffffffffffff1673ffffffffffffffffffffffffffffffffffffffff16815260200190815260200160002060009054906101000a900460ff165b610647576040517f08c379a000000000000000000000000000000000000000000000000000000000815260040161063e90611510565b60405180910390fd5b6000808373ffffffffffffffffffffffffffffffffffffffff1673ffffffffffffffffffffffffffffffffffffffff168152602001908152602001600020805480602002602001604051908101604052809291908181526020016000905b828210156107515783829060005260206000200180546106c4906110f9565b80601f01602080910402602001604051908101604052809291908181526020018280546106f0906110f9565b801561073d5780601f106107125761010080835404028352916020019161073d565b820191906000526020600020905b81548152906001019060200180831161072057829003601f168201915b5050505050815260200190600101906106a5565b505050509050919050565b60018060003373ffffffffffffffffffffffffffffffffffffffff1673ffffffffffffffffffffffffffffffffffffffff16815260200190815260200160002060008373ffffffffffffffffffffffffffffffffffffffff1673ffffffffffffffffffffffffffffffffffffffff16815260200190815260200160002060006101000a81548160ff021916908315150217905550600360003373ffffffffffffffffffffffffffffffffffffffff1673ffffffffffffffffffffffffffffffffffffffff16815260200190815260200160002060008273ffffffffffffffffffffffffffffffffffffffff1673ffffffffffffffffffffffffffffffffffffffff16815260200190815260200160002060009054906101000a900460ff1615610a0e5760005b600260003373ffffffffffffffffffffffffffffffffffffffff1673ffffffffffffffffffffffffffffffffffffffff16815260200190815260200160002080549050811015610a08578173ffffffffffffffffffffffffffffffffffffffff16600260003373ffffffffffffffffffffffffffffffffffffffff1673ffffffffffffffffffffffffffffffffffffffff16815260200190815260200160002082815481106109345761093361141e565b5b9060005260206000200160000160009054906101000a900473ffffffffffffffffffffffffffffffffffffffff1673ffffffffffffffffffffffffffffffffffffffff16036109f5576001600260003373ffffffffffffffffffffffffffffffffffffffff1673ffffffffffffffffffffffffffffffffffffffff16815260200190815260200160002082815481106109d0576109cf61141e565b5b9060005260206000200160000160146101000a81548160ff0219169083151502179055505b8080610a009061147c565b915050610882565b50610b9f565b600260003373ffffffffffffffffffffffffffffffffffffffff1673ffffffffffffffffffffffffffffffffffffffff16815260200190815260200160002060405180604001604052808373ffffffffffffffffffffffffffffffffffffffff168152602001600115158152509080600181540180825580915050600190039060005260206000200160009091909190915060008201518160000160006101000a81548173ffffffffffffffffffffffffffffffffffffffff021916908373ffffffffffffffffffffffffffffffffffffffff16021790555060208201518160000160146101000a81548160ff02191690831515021790555050506001600360003373ffffffffffffffffffffffffffffffffffffffff1673ffffffffffffffffffffffffffffffffffffffff16815260200190815260200160002060008373ffffffffffffffffffffffffffffffffffffffff1673ffffffffffffffffffffffffffffffffffffffff16815260200190815260200160002060006101000a81548160ff0219169083151502179055505b8073ffffffffffffffffffffffffffffffffffffffff163373ffffffffffffffffffffffffffffffffffffffff167f9f520b3bfc56d06f7065d10b4683b3f57ac8895d5026cd176dee95ce1454cb8d60405160405180910390a350565b6000604051905090565b600080fd5b600080fd5b600073ffffffffffffffffffffffffffffffffffffffff82169050919050565b6000610c3b82610c10565b9050919050565b610c4b81610c30565b8114610c5657600080fd5b50565b600081359050610c6881610c42565b92915050565b600080fd5b600080fd5b6000601f19601f8301169050919050565b7f4e487b7100000000000000000000000000000000000000000000000000000000600052604160045260246000fd5b610cc182610c78565b810181811067ffffffffffffffff82111715610ce057610cdf610c89565b5b80604052505050565b6000610cf3610bfc565b9050610cff8282610cb8565b919050565b600067ffffffffffffffff821115610d1f57610d1e610c89565b5b610d2882610c78565b9050602081019050919050565b82818337600083830152505050565b6000610d57610d5284610d04565b610ce9565b905082815260208101848484011115610d7357610d72610c73565b5b610d7e848285610d35565b509392505050565b600082601f830112610d9b57610d9a610c6e565b5b8135610dab848260208601610d44565b91505092915050565b60008060408385031215610dcb57610dca610c06565b5b6000610dd985828601610c59565b925050602083013567ffffffffffffffff811115610dfa57610df9610c0b565b5b610e0685828601610d86565b9150509250929050565b600060208284031215610e2657610e25610c06565b5b6000610e3484828501610c59565b91505092915050565b600081519050919050565b600082825260208201905092915050565b6000819050602082019050919050565b610e7281610c30565b82525050565b60008115159050919050565b610e8d81610e78565b82525050565b604082016000820151610ea96000850182610e69565b506020820151610ebc6020850182610e84565b50505050565b6000610ece8383610e93565b60408301905092915050565b6000602082019050919050565b6000610ef282610e3d565b610efc8185610e48565b9350610f0783610e59565b8060005b83811015610f38578151610f1f8882610ec2565b9750610f2a83610eda565b925050600181019050610f0b565b5085935050505092915050565b60006020820190508181036000830152610f5f8184610ee7565b905092915050565b600081519050919050565b600082825260208201905092915050565b6000819050602082019050919050565b600081519050919050565b600082825260208201905092915050565b60005b83811015610fcd578082015181840152602081019050610fb2565b60008484015250505050565b6000610fe482610f93565b610fee8185610f9e565b9350610ffe818560208601610faf565b61100781610c78565b840191505092915050565b600061101e8383610fd9565b905092915050565b6000602082019050919050565b600061103e82610f67565b6110488185610f72565b93508360208202850161105a85610f83565b8060005b8581101561109657848403895281516110778582611012565b945061108283611026565b925060208a0199505060018101905061105e565b50829750879550505050505092915050565b600060208201905081810360008301526110c28184611033565b905092915050565b7f4e487b7100000000000000000000000000000000000000000000000000000000600052602260045260246000fd5b6000600282049050600182168061111157607f821691505b602082108103611124576111236110ca565b5b50919050565b60008190508160005260206000209050919050565b60006020601f8301049050919050565b600082821b905092915050565b60006008830261118c7fffffffffffffffffffffffffffffffffffffffffffffffffffffffffffffffff8261114f565b611196868361114f565b95508019841693508086168417925050509392505050565b6000819050919050565b6000819050919050565b60006111dd6111d86111d3846111ae565b6111b8565b6111ae565b9050919050565b6000819050919050565b6111f7836111c2565b61120b611203826111e4565b84845461115c565b825550505050565b600090565b611220611213565b61122b8184846111ee565b505050565b5b8181101561124f57611244600082611218565b600181019050611231565b5050565b601f821115611294576112658161112a565b61126e8461113f565b8101602085101561127d578190505b6112916112898561113f565b830182611230565b50505b505050565b600082821c905092915050565b60006112b760001984600802611299565b1980831691505092915050565b60006112d083836112a6565b9150826002028217905092915050565b6112e982610f93565b67ffffffffffffffff81111561130257611301610c89565b5b61130c82546110f9565b611317828285611253565b600060209050601f83116001811461134a5760008415611338578287015190505b61134285826112c4565b8655506113aa565b601f1984166113588661112a565b60005b828110156113805784890151825560018201915060208501945060208101905061135b565b8683101561139d5784890151611399601f8916826112a6565b8355505b6001600288020188555050505b505050505050565b600082825260208201905092915050565b60006113ce82610f93565b6113d881856113b2565b93506113e8818560208601610faf565b6113f181610c78565b840191505092915050565b6000602082019050818103600083015261141681846113c3565b905092915050565b7f4e487b7100000000000000000000000000000000000000000000000000000000600052603260045260246000fd5b7f4e487b7100000000000000000000000000000000000000000000000000000000600052601160045260246000fd5b6000611487826111ae565b91507fffffffffffffffffffffffffffffffffffffffffffffffffffffffffffffffff82036114b9576114b861144d565b5b600182019050919050565b7f596f7520646f6e27742068617665206163636573730000000000000000000000600082015250565b60006114fa6015836113b2565b9150611505826114c4565b602082019050919050565b60006020820190508181036000830152611529816114ed565b905091905056fea2646970667358221220914e452d59d28f65adb896fc7beccd02cfef414805164e3e2ff88df59547852b64736f6c63430008110033",
  "linkReferences": {},
  "deployedLinkReferences": {}
}