{
  "_format": "hh-sol-artifact-1",
  "contractName": "Upload",
  "sourceName": "contracts/Upload.sol",
  "abi": [
    {
      "anonymous": false,
      "inputs": [
        {
          "indexed": true,
          "internalType": "address",
          "name": "owner",
          "type": "address"
        },
        {
          "indexed": true,
          "internalType": "address",
          "name": "user",
          "type": "address"
        }
      ],
      "name": "AccessGranted",
      "type": "event"
    },
    {
      "anonymous": false,
      "inputs": [
        {
          "indexed": true,
          "internalType": "address",
          "name": "owner",
          "type": "address"
        },
        {
          "indexed": true,
          "internalType": "address",
          "name": "user",
          "type": "address"
        }
      ],
      "name": "AccessRevoked",
      "type": "event"
    },
    {
      "anonymous": false,
      "inputs": [
        {
          "indexed": true,
          "internalType": "address",
          "name": "user",
          "type": "address"
        },
        {
          "indexed": false,
          "internalType": "string",
          "name": "url",
          "type": "string"
        }
      ],
      "name": "ValueAdded",
      "type": "event"
    },
    {
      "inputs": [
        {
          "internalType": "address",
          "name": "_user",
          "type": "address"
        },
        {
          "internalType": "string",
          "name": "url",
          "type": "string"
        }
      ],
      "name": "add",
      "outputs": [],
      "stateMutability": "nonpayable",
      "type": "function"
    },
    {
      "inputs": [
        {
          "internalType": "address",
          "name": "user",
          "type": "address"
        }
      ],
      "name": "allow",
      "outputs": [],
      "stateMutability": "nonpayable",
      "type": "function"
    },
    {
      "inputs": [
        {
          "internalType": "address",
          "name": "user",
          "type": "address"
        }
      ],
      "name": "disallow",
      "outputs": [],
      "stateMutability": "nonpayable",
      "type": "function"
    },
    {
      "inputs": [
        {
          "internalType": "address",
          "name": "_user",
          "type": "address"
        }
      ],
      "name": "display",
      "outputs": [
        {
          "internalType": "string[]",
          "name": "",
          "type": "string[]"
        }
      ],
      "stateMutability": "view",
      "type": "function"
    },
    {
      "inputs": [],
      "name": "shareAccess",
      "outputs": [
        {
          "components": [
            {
              "internalType": "address",
              "name": "user",
              "type": "address"
            },
            {
              "internalType": "bool",
              "name": "access",
              "type": "bool"
            }
          ],
          "internalType": "struct Upload.Access[]",
          "name": "",
          "type": "tuple[]"
        }
      ],
      "stateMutability": "view",
      "type": "function"
    }
  ],
  "bytecode": "0x608060405234801561001057600080fd5b5061139f806100206000396000f3fe608060405234801561001057600080fd5b50600436106100575760003560e01c806336d6da551461005c578063a9ed9cb814610078578063bc8bef8114610094578063eb39113f146100b2578063ff9913e8146100e2575b600080fd5b61007660048036038101906100719190610e60565b6100fe565b005b610092600480360381019061008d9190610ebc565b6101c8565b005b61009c610445565b6040516100a99190610ff1565b60405180910390f35b6100cc60048036038101906100c79190610ebc565b61054e565b6040516100d9919061115d565b60405180910390f35b6100fc60048036038101906100f79190610ebc565b610764565b005b6000808373ffffffffffffffffffffffffffffffffffffffff1673ffffffffffffffffffffffffffffffffffffffff16815260200190815260200160002081908060018154018082558091505060019003906000526020600020016000909190919091509080519060200190610175929190610c05565b508173ffffffffffffffffffffffffffffffffffffffff167fa0632f36fb58843205c8c416a42852053aebfb9a640141d96ef322f98d079ff1826040516101bc91906111c9565b60405180910390a25050565b6000600160003373ffffffffffffffffffffffffffffffffffffffff1673ffffffffffffffffffffffffffffffffffffffff16815260200190815260200160002060008373ffffffffffffffffffffffffffffffffffffffff1673ffffffffffffffffffffffffffffffffffffffff16815260200190815260200160002060006101000a81548160ff02191690831515021790555060005b600260003373ffffffffffffffffffffffffffffffffffffffff1673ffffffffffffffffffffffffffffffffffffffff168152602001908152602001600020805490508110156103e7578173ffffffffffffffffffffffffffffffffffffffff16600260003373ffffffffffffffffffffffffffffffffffffffff1673ffffffffffffffffffffffffffffffffffffffff1681526020019081526020016000208281548110610312576103116111eb565b5b9060005260206000200160000160009054906101000a900473ffffffffffffffffffffffffffffffffffffffff1673ffffffffffffffffffffffffffffffffffffffff1614156103d4576000600260003373ffffffffffffffffffffffffffffffffffffffff1673ffffffffffffffffffffffffffffffffffffffff16815260200190815260200160002082815481106103af576103ae6111eb565b5b9060005260206000200160000160146101000a81548160ff0219169083151502179055505b80806103df90611253565b915050610260565b508073ffffffffffffffffffffffffffffffffffffffff163373ffffffffffffffffffffffffffffffffffffffff167f825c8be24eb0df19500f63e86c29e7d0d951e73056b889b891d85e40938d9b6e60405160405180910390a350565b6060600260003373ffffffffffffffffffffffffffffffffffffffff1673ffffffffffffffffffffffffffffffffffffffff168152602001908152602001600020805480602002602001604051908101604052809291908181526020016000905b82821015610545578382906000526020600020016040518060400160405290816000820160009054906101000a900473ffffffffffffffffffffffffffffffffffffffff1673ffffffffffffffffffffffffffffffffffffffff1673ffffffffffffffffffffffffffffffffffffffff1681526020016000820160149054906101000a900460ff161515151581525050815260200190600101906104a6565b50505050905090565b60603373ffffffffffffffffffffffffffffffffffffffff168273ffffffffffffffffffffffffffffffffffffffff1614806106105750600160008373ffffffffffffffffffffffffffffffffffffffff1673ffffffffffffffffffffffffffffffffffffffff16815260200190815260200160002060003373ffffffffffffffffffffffffffffffffffffffff1673ffffffffffffffffffffffffffffffffffffffff16815260200190815260200160002060009054906101000a900460ff165b61064f576040517f08c379a0000000000000000000000000000000000000000000000000000000008152600401610646906112e8565b60405180910390fd5b6000808373ffffffffffffffffffffffffffffffffffffffff1673ffffffffffffffffffffffffffffffffffffffff168152602001908152602001600020805480602002602001604051908101604052809291908181526020016000905b828210156107595783829060005260206000200180546106cc90611337565b80601f01602080910402602001604051908101604052809291908181526020018280546106f890611337565b80156107455780601f1061071a57610100808354040283529160200191610745565b820191906000526020600020905b81548152906001019060200180831161072857829003601f168201915b5050505050815260200190600101906106ad565b505050509050919050565b60018060003373ffffffffffffffffffffffffffffffffffffffff1673ffffffffffffffffffffffffffffffffffffffff16815260200190815260200160002060008373ffffffffffffffffffffffffffffffffffffffff1673ffffffffffffffffffffffffffffffffffffffff16815260200190815260200160002060006101000a81548160ff021916908315150217905550600360003373ffffffffffffffffffffffffffffffffffffffff1673ffffffffffffffffffffffffffffffffffffffff16815260200190815260200160002060008273ffffffffffffffffffffffffffffffffffffffff1673ffffffffffffffffffffffffffffffffffffffff16815260200190815260200160002060009054906101000a900460ff1615610a175760005b600260003373ffffffffffffffffffffffffffffffffffffffff1673ffffffffffffffffffffffffffffffffffffffff16815260200190815260200160002080549050811015610a11578173ffffffffffffffffffffffffffffffffffffffff16600260003373ffffffffffffffffffffffffffffffffffffffff1673ffffffffffffffffffffffffffffffffffffffff168152602001908152602001600020828154811061093c5761093b6111eb565b5b9060005260206000200160000160009054906101000a900473ffffffffffffffffffffffffffffffffffffffff1673ffffffffffffffffffffffffffffffffffffffff1614156109fe576001600260003373ffffffffffffffffffffffffffffffffffffffff1673ffffffffffffffffffffffffffffffffffffffff16815260200190815260200160002082815481106109d9576109d86111eb565b5b9060005260206000200160000160146101000a81548160ff0219169083151502179055505b8080610a0990611253565b91505061088a565b50610ba8565b600260003373ffffffffffffffffffffffffffffffffffffffff1673ffffffffffffffffffffffffffffffffffffffff16815260200190815260200160002060405180604001604052808373ffffffffffffffffffffffffffffffffffffffff168152602001600115158152509080600181540180825580915050600190039060005260206000200160009091909190915060008201518160000160006101000a81548173ffffffffffffffffffffffffffffffffffffffff021916908373ffffffffffffffffffffffffffffffffffffffff16021790555060208201518160000160146101000a81548160ff02191690831515021790555050506001600360003373ffffffffffffffffffffffffffffffffffffffff1673ffffffffffffffffffffffffffffffffffffffff16815260200190815260200160002060008373ffffffffffffffffffffffffffffffffffffffff1673ffffffffffffffffffffffffffffffffffffffff16815260200190815260200160002060006101000a81548160ff0219169083151502179055505b8073ffffffffffffffffffffffffffffffffffffffff163373ffffffffffffffffffffffffffffffffffffffff167f9f520b3bfc56d06f7065d10b4683b3f57ac8895d5026cd176dee95ce1454cb8d60405160405180910390a350565b828054610c1190611337565b90600052602060002090601f016020900481019282610c335760008555610c7a565b82601f10610c4c57805160ff1916838001178555610c7a565b82800160010185558215610c7a579182015b82811115610c79578251825591602001919060010190610c5e565b5b509050610c879190610c8b565b5090565b5b80821115610ca4576000816000905550600101610c8c565b5090565b6000604051905090565b600080fd5b600080fd5b600073ffffffffffffffffffffffffffffffffffffffff82169050919050565b6000610ce782610cbc565b9050919050565b610cf781610cdc565b8114610d0257600080fd5b50565b600081359050610d1481610cee565b92915050565b600080fd5b600080fd5b6000601f19601f8301169050919050565b7f4e487b7100000000000000000000000000000000000000000000000000000000600052604160045260246000fd5b610d6d82610d24565b810181811067ffffffffffffffff82111715610d8c57610d8b610d35565b5b80604052505050565b6000610d9f610ca8565b9050610dab8282610d64565b919050565b600067ffffffffffffffff821115610dcb57610dca610d35565b5b610dd482610d24565b9050602081019050919050565b82818337600083830152505050565b6000610e03610dfe84610db0565b610d95565b905082815260208101848484011115610e1f57610e1e610d1f565b5b610e2a848285610de1565b509392505050565b600082601f830112610e4757610e46610d1a565b5b8135610e57848260208601610df0565b91505092915050565b60008060408385031215610e7757610e76610cb2565b5b6000610e8585828601610d05565b925050602083013567ffffffffffffffff811115610ea657610ea5610cb7565b5b610eb285828601610e32565b9150509250929050565b600060208284031215610ed257610ed1610cb2565b5b6000610ee084828501610d05565b91505092915050565b600081519050919050565b600082825260208201905092915050565b6000819050602082019050919050565b610f1e81610cdc565b82525050565b60008115159050919050565b610f3981610f24565b82525050565b604082016000820151610f556000850182610f15565b506020820151610f686020850182610f30565b50505050565b6000610f7a8383610f3f565b60408301905092915050565b6000602082019050919050565b6000610f9e82610ee9565b610fa88185610ef4565b9350610fb383610f05565b8060005b83811015610fe4578151610fcb8882610f6e565b9750610fd683610f86565b925050600181019050610fb7565b5085935050505092915050565b6000602082019050818103600083015261100b8184610f93565b905092915050565b600081519050919050565b600082825260208201905092915050565b6000819050602082019050919050565b600081519050919050565b600082825260208201905092915050565b60005b8381101561107957808201518184015260208101905061105e565b83811115611088576000848401525b50505050565b60006110998261103f565b6110a3818561104a565b93506110b381856020860161105b565b6110bc81610d24565b840191505092915050565b60006110d3838361108e565b905092915050565b6000602082019050919050565b60006110f382611013565b6110fd818561101e565b93508360208202850161110f8561102f565b8060005b8581101561114b578484038952815161112c85826110c7565b9450611137836110db565b925060208a01995050600181019050611113565b50829750879550505050505092915050565b6000602082019050818103600083015261117781846110e8565b905092915050565b600082825260208201905092915050565b600061119b8261103f565b6111a5818561117f565b93506111b581856020860161105b565b6111be81610d24565b840191505092915050565b600060208201905081810360008301526111e38184611190565b905092915050565b7f4e487b7100000000000000000000000000000000000000000000000000000000600052603260045260246000fd5b7f4e487b7100000000000000000000000000000000000000000000000000000000600052601160045260246000fd5b6000819050919050565b600061125e82611249565b91507fffffffffffffffffffffffffffffffffffffffffffffffffffffffffffffffff8214156112915761129061121a565b5b600182019050919050565b7f596f7520646f6e27742068617665206163636573730000000000000000000000600082015250565b60006112d260158361117f565b91506112dd8261129c565b602082019050919050565b60006020820190508181036000830152611301816112c5565b9050919050565b7f4e487b7100000000000000000000000000000000000000000000000000000000600052602260045260246000fd5b6000600282049050600182168061134f57607f821691505b6020821081141561136357611362611308565b5b5091905056fea26469706673582212207fa2bcf04de1467bd56829d25fdcd389522817739dc9643b36271c55488fa08064736f6c63430008090033",
  "linkReferences": {},
  "deployedLinkReferences": {}
}